:020000040800F2
:1000000000200020D5010008DD010008E101000802
:1000100000000000000000000000000000000000E0
:1000200000000000000000000000000015020008B1
:100030000000000000000000190200081D02000876
:1000400025020008250200082502000825020008F4
:10005000250200082502000895070008250200086F
:1000600025020008250200082502000825020008D4
:10007000250200082502000825020008550700088F
:1000800025020008250200080000000025020008E3
:1000900025020008250200082502000825020008A4
:1000A0002502000825020008250200082502000894
:1000B00025020008000000002502000830B583B0CA
:1000C00000F038FA314B324A1360324A1360324B37
:1000D000324A03E0116819600433043230498B421C
:1000E000F8D32B4B1A682F4B9A4204D1294B1A682C
:1000F0002D4B9A4200D0FEE7244B2C4A13602C4A29
:1001000013602C4B02E000221A6004332A4A934207
:10011000F9D3264B1B68002B03D1254B1B68002B02
:1001200000D0FEE700F062FA694601A800F068F925
:10013000224C234B1C1BA410002504E0AA001F4BDB
:10014000D35898470135AC42F8DC1E4C1E4B1C1BA3
:10015000A410002504E0AA001A4BD3589847013593
:10016000AC42F8DC0099019800F0D4FA0500174C75
:10017000174B1C1BA41004E0013CA200134BD358E6
:100180009847002CF8DC280000F016F9BABADECA4D
:10019000000000207C000020000000200016000865
:1001A0008000002078563412325476988000002067
:1001B00020010020800000202401002050020008BF
:1001C00050020008500200085002000850020008C7
:1001D0005002000810B5FFF771FFC04600BEFEE7F1
:1001E00004207146084202D0EFF3098001E0EFF3EA
:1001F000088071460A4A104770B504000D00044893
:1002000000F03EF92900200000F050F900BEFEE7A2
:10021000AC14000800BEFEE700BEFEE77047000019
:08022000F901000800BEFEE731
:1002280000160008000000208000002000160008CA
:1002380000000000000000008000002024010020D1
:080248000000000000000000AE
:1002500010B504000E4B1978FA20800000F0F6FA71
:1002600001000C4B186800F0F1FA00F065F8002866
:100270000AD1032C0AD800222100013800F01EF810
:10028000054B1C60002002E0012000E0012010BDB1
:1002900008000020140000200400002010B5064AC9
:1002A000116810230B4313600320FFF7D1FF00F008
:1002B000CBFA002010BDC0460020024070B50500FA
:1002C0000C00032903D98B21184800F097F9002D61
:1002D00012DBAA081648C0329200115803231D40B1
:1002E000ED00FF263300AB409943A30134001C40CE
:1002F000AC400C43145017E0EDB20F222A40083AEC
:100300009208063292000B4B9C46624451680323CC
:100310001D40ED00FF200300AB409943A3011840AE
:100320000400AC400C43546070BDC046C8130008C4
:1003300000E100E000ED00E001380A4B98420FD8E0
:10034000094A506009490B6A1B021B0AC0200006BB
:1003500003430B620023936007331360002000E027
:1003600001207047FFFFFF0010E000E000ED00E01B
:1003700010B50400042806D0002804D02621FF313F
:10038000084800F03BF9042C05D1074A1168042302
:100390000B43136004E0044A136804218B43136089
:1003A00010BDC046C813000810E000E0014B1868FB
:1003B0007047C04614000020FEE7C04610B5030099
:1003C0000C4A1268002A02D10B490A4A1160094AF4
:1003D0001068033303229343C318084A934206D993
:1003E00000F0AAFB0C2303600120404201E0014A17
:1003F000136010BD8400002024010020001C002098
:1004000001230360014B0B607047C0460C000020C5
:10041000F0B54F464646C0B487B00400019143563C
:10042000002B1FD10426301C211CABBE041C1CE079
:100430003E00102F00D91026002305E00022A2560E
:1004400002A9CA5401330134B342F7D302AA914638
:1004500000224946CA540425281C4946ABBE8046A2
:10046000BF1B00E0019F002FE2D1019807B00CBC38
:1004700090469946F0BDC04610B5FFF7C9FF10BDC4
:100480000FB400B583B004AB04CB019380210648C0
:1004900000F08CFB002803DD01000348FFF7ECFFB0
:1004A00003B008BC04B018478C00002070B50400ED
:1004B0000D001548FFF7E4FF21681448FFF7E0FF3F
:1004C00061681348FFF7DCFFA1681248FFF7D8FF07
:1004D000E1681148FFF7D4FF21691048FFF7D0FF0A
:1004E00061690F48FFF7CCFFA1690E48FFF7C8FF0D
:1004F000E1690D48FFF7C4FF0C48FFF7C1FF290071
:100500000B48FFF7BDFF70BDFC1300080C1400087A
:100510001C1400082C1400083C1400084C1400089B
:100520005C1400086C1400087C1400088C1400088B
:100530009414000810B500F001F810BD7047C046D3
:1005400010B51E4B5B680C221340042B07D0082B00
:1005500009D0002B22D11A4A1A4B1A6021E0184AFE
:10056000184B1A601DE0154B5C685A6880204002E9
:100570000240A40C0F210C400234DB6A1940013107
:10058000824206D10E4800F061F944430D4B1C60D5
:1005900007E00D4844430B4B1C6002E0084A094B3E
:1005A0001A60064B5B681B090F221340074AD35C95
:1005B000044A1168D940116010BDC04600100240C5
:1005C00000127A001400002000093D00BC1400084D
:1005D00010B5FFF7EBFEFA21890000F037F9FFF7BD
:1005E000ABFE0420FFF7C4FE10BDC04610B5FFF7F8
:1005F00055FEFFF7EDFFFFF7A3FF10BD10B50A0092
:1006000001000248FFF73CFFFEE7C046CC1400089B
:1006100010B5104A1168104B0B4013600D4B1B684E
:100620009B01FBD40B4BA02292035A601A688021D5
:1006300049040A431A60074B1B689B01FBD5054917
:100640004B6803229343013A13434B60FFF778FF53
:1006500010BDC04600100240FFFFFFFE074A53696D
:100660008021C9020B435361054B1A6830218A432C
:100670001A60DA682D398A43DA6070470010024048
:100680000004004810B50E49CB6901221343CB6129
:100690008023DB058C211960002199620139D96220
:1006A0005A610848C324A40001590902090A0151EA
:1006B000802109020160D9680A43DA6010BDC04692
:1006C0000010024000E100E00E4B9968F022120198
:1006D0000A409A609A68802149000A439A600A4B4E
:1006E000996804221143996019680A431A60074BFC
:1006F000C12189005858064A02405A5040221A60C7
:100700007047C046000001400004014000E100E0E5
:10071000FFFF00FF10B5FFF77BFF0A48FFF7B0FEB1
:10072000094B19680948FFF7ABFE094A9169012393
:100730000B439361FFF792FFFFF7A4FFFFF7C4FF9E
:10074000FEE7C046FC140008140000202415000831
:100750000010024010B50C48FFF792FE8023DB0525
:100760001B69DB070FD50948FFF78AFE8023DB05ED
:100770001A6901218A431A611A688A431A60044A75
:1007800013680133136010BD3C15000850150008B4
:100790000C01002070B5234B5B695B0741D5224BF0
:1007A0001B68002B0CD18023DB0500225A621F49F5
:1007B0000A601A6801210A431A601B4B19602BE07A
:1007C0008024E4052368012293432360184D29689F
:1007D0001848FFF755FE616A1748FFF751FE636A34
:1007E000124A14681C1B2968200000F02FF806002C
:1007F0002100012000F0B4F8050021000F48FFF7A8
:100800003FFE31000E48FFF73BFE29000D48FFF781
:1008100037FE0022044B1A60024A516904230B433D
:10082000536170BD00040140100100200C01002044
:1008300014000020641500087C15000890150008BD
:10084000A8150008B81500087047C04600224308E4
:100850008B4274D303098B425FD3030A8B4244D388
:10086000030B8B4228D3030C8B420DD3FF220902CA
:1008700012BA030C8B4202D31212090265D0030B89
:100880008B4219D300E0090AC30B8B4201D3CB037F
:10089000C01A5241830B8B4201D38B03C01A5241C1
:1008A000430B8B4201D34B03C01A5241030B8B42C3
:1008B00001D30B03C01A5241C30A8B4201D3CB02AE
:1008C000C01A5241830A8B4201D38B02C01A524193
:1008D000430A8B4201D34B02C01A5241030A8B4296
:1008E00001D30B02C01A5241CDD2C3098B4201D3AE
:1008F000CB01C01A524183098B4201D38B01C01A2C
:10090000524143098B4201D34B01C01A52410309A2
:100910008B4201D30B01C01A5241C3088B4201D351
:10092000CB00C01A524183088B4201D38B00C01AFE
:10093000524143088B4201D34B00C01A5241411A25
:1009400000D20146524110467047FFE701B5002032
:1009500000F0F0F802BDC0460029F7D076E77047F6
:1009600003460B437FD4002243088B4274D3030910
:100970008B425FD3030A8B4244D3030B8B4228D3B1
:10098000030C8B420DD3FF22090212BA030C8B42D7
:1009900002D31212090265D0030B8B4219D300E077
:1009A000090AC30B8B4201D3CB03C01A5241830BFC
:1009B0008B4201D38B03C01A5241430B8B4201D3AC
:1009C0004B03C01A5241030B8B4201D30B03C01AD5
:1009D0005241C30A8B4201D3CB02C01A5241830A4F
:1009E0008B4201D38B02C01A5241430A8B4201D37E
:1009F0004B02C01A5241030A8B4201D30B02C01AA8
:100A00005241CDD2C3098B4201D3CB01C01A52410E
:100A100083098B4201D38B01C01A524143098B4297
:100A200001D34B01C01A524103098B4201D30B0180
:100A3000C01A5241C3088B4201D3CB00C01A5241A5
:100A400083088B4201D38B00C01A524143088B426A
:100A500001D34B00C01A5241411A00D20146524103
:100A6000104670475DE0CA0F00D04942031000D322
:100A70004042534000229C4603098B422DD3030A77
:100A80008B4212D3FC22890112BA030A8B420CD387
:100A9000890192118B4208D3890192118B4204D3B0
:100AA00089013AD0921100E08909C3098B4201D330
:100AB000CB01C01A524183098B4201D38B01C01A6A
:100AC000524143098B4201D34B01C01A52410309E1
:100AD0008B4201D30B01C01A5241C3088B4201D390
:100AE000CB00C01A524183088B4201D38B00C01A3D
:100AF0005241D9D243088B4201D34B00C01A524114
:100B0000411A00D20146634652415B10104601D3A0
:100B10004042002B00D54942704763465B1000D32A
:100B2000404201B5002000F005F802BD0029F8D0D0
:100B300016E770477047C046014B18687047C046BB
:100B400078000020002310B59A4203D0CC5CC45436
:100B50000133F9E710BD30B514009BB005001A0051
:100B6000002C04DA8B230360012040421CE0822326
:100B700068469B0083810023009104919C4200D031
:100B8000631E02930593012369465B42CB812800D3
:100B90001E9B00F079F8431C01DA8B232B60002C9C
:100BA00002D00023009A13701BB030BD07B500932C
:100BB00013000A00010002480068FFF7CCFF0EBDD9
:100BC00078000020F0B58E6885B007000C00039215
:100BD00001939E4243D890238A89DB001A423ED07B
:100BE00003250969236801985B1A029363695D43D1
:100BF000EB0F5D19029B6D1001331B18AB4200D93E
:100C00001D00530510D52900380000F037FB061EE3
:100C100014D0029A2169FFF795FFA289194B13405E
:100C200080221343A38112E02A00380000F086FBE3
:100C3000061E0CD12169380000F0D4FA0C234022A2
:100C400001203B60A38940421343A38117E0029B2C
:100C50002661F61826606561019EED1AA560019B6C
:100C6000B34200D21E0032000399206800F0A5FABA
:100C70000020A3689B1BA36023689E19266005B013
:100C8000F0BDC0467FFBFFFFF0B59FB0029005931B
:100C90008B890F0016001B0610D50B69002B0DD198
:100CA000402100F0EBFA38603861002804D10C23B1
:100CB000029A01381360D8E040237B61002306AD1F
:100CC0006B6120336B761033AB7634002378002BC6
:100CD00003D1A31B049312D003E0252BF9D00134D8
:100CE000F4E7A31B320039000298FFF76BFF431CA7
:100CF00000D1B4E06A69049B944663446B61237835
:100D0000002B00D1ABE00122002352426A6002A90D
:100D10005432521801342B60EB60AB601370AB653A
:100D2000534E21780522300000F03CFA002807D00D
:100D30000123801B83402A68013413432B60EFE7B3
:100D40002B68DA0604D55322202102A8121811704C
:100D50001A0704D553222B2102A8121811702278E9
:100D60002A2A03D0099B00200A210EE0059A111DB2
:100D700012680591002A01DB099204E05242EA6000
:100D8000022213432B6001340BE02278303A092A07
:100D900004D84B4301349B180120F6E7002800D00B
:100DA000099323782E2B1ED163782A2B0AD1059B19
:100DB00002341A1D1B680592002B01DA01235B42E5
:100DC000079310E000230A201A0001346B60217899
:100DD0003039092904D84243013452180123F6E777
:100DE000002B00D00792234E21780322300000F020
:100DF000D9F9002806D04023801B83402A6801349B
:100E000013432B60217806221B48661C297600F0CC
:100E1000C9F9002812D0194B002B06D10722059BD7
:100E2000073393430833059314E005AB00933A006E
:100E3000134B2900029800E000BF07E005AB0093C8
:100E40003A000F4B2900029800F08AF80390039BA8
:100E5000013304D06B69039A9B186B6135E7BB893A
:100E60000B985B0601D5012040421FB0F0BDC04683
:100E7000CC150008D2150008D615000800000000A7
:100E8000C50B0008F7B5170001938A680B6900903D
:100E90000C00934200DA130022003B6043321278C8
:100EA000002A01D001333B6023689B0602D53B68D2
:100EB00002333B60062523681D401ED023004333C8
:100EC0001B785A1E9341226892061CD53020E118E7
:100ED0004331087021005A1C45310978A218433269
:100EE000023311700FE0220001231932019900989A
:100EF000089EB047431C0ED00135E3683A689B1A40
:100F00009D42F0DBDAE72200019943320098089D08
:100F1000A847431C02D10120404220E0062320685C
:100F2000E1683A6803400025042B03D18D1AEB4396
:100F3000DB171D40A3682269934201DD9B1AED185F
:100F40000027BD420AD0220001231A3201990098DD
:100F5000089EB047431CDED00137F2E70020FEBDFB
:100F6000F0B58BB006920A004332079305900492C5
:100F70000A7E0C00109B6E2A00D1ABE011D8632AC8
:100F800022D009D8002A00D1B5E0582A00D0C5E007
:100F900045310A70814A4FE0642A1DD0692A1BD06E
:100FA000BCE0732A00D1AAE009D86F2A29D0702AA0
:100FB00000D0B3E0202209680A43226037E0752A96
:100FC0001FD0782A33D0A9E00E001A684236111DCE
:100FD000196013683370A4E021681A68080606D403
:100FE000490604D5111D19600023D55E02E0111DCC
:100FF00019601568002D3BDA2D23049A6D42137099
:1010000036E021681A68080606D4490604D5156832
:10101000111D1960ADB202E0111D196015685F4B1A
:10102000227E039308276F2A1DD00A271BE0220087
:101030007821453211705A4A19680392081D2268B6
:1010400018600D68100602D4500600D5ADB2D30763
:1010500002D520231A4322601027002D03D120231C
:1010600022689A4322602300002243331A7002E070
:101070000A274A4B03936368A360002B09DB042211
:10108000216891432160002D05D1049E002B11D0D1
:101090007BE0002D79D0049E28003900FFF75CFC2E
:1010A000039B013E5B5C280033703900FFF7CEFBE9
:1010B000051EF1D1082F09D12368DB0706D5636827
:1010C0002269934202DC3023013E3370049B9B1B58
:1010D00023612BE009681A68080607D4490605D57C
:1010E000111D19601368A28A1A8004E0111D19608D
:1010F000136862691A600023049E236116E01A686F
:10110000111D1960166800216268300000F04AF86D
:10111000002801D0801B6060636803E0260042362F
:101120003270012323610023049A1370079B09AADC
:1011300000932100069B0598FFF7A4FE431C02D1F3
:101140000120404227E02369320006990598079D57
:10115000A847431CF4D0236800259B070FD4099BA4
:10116000E068984217DA180015E0220001231932CE
:1011700006990598079EB047431CE1D00135E36806
:10118000099A9B1A9D42F0DBE9E72600039B423651
:101190001B7833708EE70BB0F0BDC046DD1500083C
:1011A000EE150008C9B28218904204D003788B4231
:1011B00002D00130F8E70020704710B5884202D90C
:1011C0008B18984201D3002305E09B1A013A08D3FB
:1011D000995C8154FAE7934203D0CC5CC454013348
:1011E000F9E710BD70B50500002944D00C1F236835
:1011F000002B00DAE418280000F0D8F81E4A136823
:101200001100002B02D16360146031E0A3420DD9BC
:101210002268A018834203D118685B688218226094
:1012200063600C6024E0A24203D813005A68002ACD
:10123000F9D11E689819A0420BD12168711858186D
:101240001960824214D110685268411819605A60BE
:101250000EE0A04202D90C232B6009E0216860183F
:10126000824203D1106852684118216062605C605C
:10127000280000F09CF870BD18010020032370B511
:10128000CD1C9D43083506000C2D01D20C2501E034
:10129000002D01DBA94202D90C23336048E0300065
:1012A00000F084F8234B1C681A002100002913D099
:1012B0000B685B1B0DD40B2B02D90B60CC181EE006
:1012C0008C4202D1636813601AE04B6863600C00C3
:1012D00016E00C004968E9E7174C2368002B03D19E
:1012E000300000F051F820602900300000F04CF888
:1012F000431C18D00323C41C9C43A0420DD125607D
:10130000300000F054F8200007220B30231D9043DA
:10131000C31A0ED05A42E2500BE0211A300000F0FE
:1013200033F8431CEBD10C233000336000F03FF85E
:10133000002070BD1801002014010020F8B506003F
:101340000C001500002904D11100FFF797FF0400DD
:1013500018E0002A03D1FFF745FF2C0012E000F04F
:1013600027F885420ED929003000FFF787FF071EB6
:1013700007D021002A00FFF7E5FB21003000FFF72E
:1013800031FF3C002000F8BD002370B5064C05007D
:1013900008002360FFF712F8431C03D12368002BD9
:1013A00000D02B6070BDC0461C0100207047704704
:1013B0000B1F1A68101F002A04DA891804390B68F9
:1013C000D0180438704700002E2E2F73797374657F
:1013D0006D2F7372632F73746D333266302D6861B5
:1013E0006C2F73746D3332663078785F68616C5F30
:1013F000636F727465782E6300000000537461633C
:101400006B206672616D653A0A0000002052302040
:101410003D2020253038580A00000000205231209D
:101420003D2020253038580A00000000205232208C
:101430003D2020253038580A00000000205233207B
:101440003D2020253038580A00000000205231325B
:10145000203D20253038580A00000000204C522042
:101460003D2020253038580A00000000205043203D
:101470003D2020253038580A0000000020505352EB
:10148000203D20253038580A000000004D69736364
:101490000A000000204C522F4558435F52455455D6
:1014A000524E3D20253038580A0000005B486172DA
:1014B000644661756C745D0A000000000000000065
:1014C00000000000010203040607080957726F6E4E
:1014D0006720706172616D65746572732076616CEE
:1014E00075653A2066696C65202573206F6E206CE7
:1014F000696E652025640D0A000000005468697358
:1015000020697320506172742032206F6620496E0A
:1015100074726F647563746F7279204C61622E2EE1
:101520002E0A000053797374656D20636C6F636BD2
:101530003A20257520487A0A0000000054696D653C
:10154000722049525120656E74657265640A00000C
:101550000A2A2A2A204F766572666C6F7721202A24
:101560002A2A0A0053797374656D436F7265436C60
:101570006F636B3A2025640A00000000636C6F63A0
:101580006B206379636C65733A2025640A00000060
:10159000746F74616C20636C6F636B206379636C30
:1015A00065733A2025640A00506572696F642025CE
:1015B000642073200A000000667265712025642093
:1015C000706572696F64732F73200A00232D302BAE
:1015D0002000686C4C006566674546470030313234
:1015E000333435363738394142434445460030318B
:0F15F000323334353637383961626364656600EB
:10160000785634120400000001FFFFFF880000201C
:101610000000000000127A0000000000000000003E
:1016200000000000000000000000000000000000BA
:1016300000000000000000000000000000000000AA
:10164000000000000000000000000000000000009A
:10165000000000000000000000000000000000008A
:10166000000000000000000000000000000000007A
:10167000000000000000000018000020325476989E
:04000005080000BD32
:00000001FF
